{
  "contractName": "BatcherPayment",
  "abi": [
    {
      "type": "function",
      "name": "balance",
      "inputs": [
        {
          "name": "",
          "type": "address",
          "internalType": "address"
        }
      ],
      "outputs": [
        {
          "name": "",
          "type": "uint256",
          "internalType": "uint256"
        }
      ],
      "stateMutability": "view"
    },
    {
      "type": "function",
      "name": "payBatcher",
      "inputs": [
        {
          "name": "batcherAddress",
          "type": "address",
          "internalType": "address"
        }
      ],
      "outputs": [],
      "stateMutability": "payable"
    },
    {
      "type": "function",
      "name": "payBatcherFor",
      "inputs": [
        {
          "name": "batcherAddress",
          "type": "address",
          "internalType": "address"
        },
        {
          "name": "forAddress",
          "type": "address",
          "internalType": "address"
        }
      ],
      "outputs": [],
      "stateMutability": "payable"
    },
    {
      "type": "function",
      "name": "withdrawFunds",
      "inputs": [],
      "outputs": [],
      "stateMutability": "nonpayable"
    },
    {
      "type": "event",
      "name": "FundsWithdrawn",
      "inputs": [
        {
          "name": "batcherAddress",
          "type": "address",
          "indexed": true,
          "internalType": "address"
        },
        {
          "name": "amount",
          "type": "uint256",
          "indexed": false,
          "internalType": "uint256"
        }
      ],
      "anonymous": false
    },
    {
      "type": "event",
      "name": "Payment",
      "inputs": [
        {
          "name": "userAddress",
          "type": "address",
          "indexed": true,
          "internalType": "address"
        },
        {
          "name": "batcherAddress",
          "type": "address",
          "indexed": true,
          "internalType": "address"
        },
        {
          "name": "value",
          "type": "uint256",
          "indexed": false,
          "internalType": "uint256"
        }
      ],
      "anonymous": false
    },
    {
      "type": "error",
      "name": "AddressInsufficientBalance",
      "inputs": [
        {
          "name": "account",
          "type": "address",
          "internalType": "address"
        }
      ]
    },
    {
      "type": "error",
      "name": "FailedInnerCall",
      "inputs": []
    }
  ],
  "bytecode": {
    "object": "0x608060405234801561001057600080fd5b506103c5806100206000396000f3fe60806040526004361061003f5760003560e01c806324600fc3146100445780633ee0efa51461005b578063b903fa3e1461006e578063e3d670d714610081575b600080fd5b34801561005057600080fd5b506100596100c0565b005b610059610069366004610313565b61016b565b61005961007c366004610346565b6101eb565b34801561008d57600080fd5b506100ae61009c366004610346565b60006020819052908152604090205481565b60405190815260200160405180910390f35b33600090815260208190526040902054806101195760405162461bcd60e51b81526020600482015260146024820152734e6f2066756e647320746f20776974686472617760601b60448201526064015b60405180910390fd5b33600081815260208190526040812055610133908261025b565b60405181815233907feaff4b37086828766ad3268786972c0cd24259d4c87a80f9d3963a3c3d999b0d9060200160405180910390a250565b6001600160a01b03821660009081526020819052604081208054349290610193908490610368565b92505081905550816001600160a01b0316816001600160a01b03167f8ed7db30df47fbd87811a5e8a95a94838f0c0241263d9a1865d6a2a3e10516e2346040516101df91815260200190565b60405180910390a35050565b6001600160a01b03811660009081526020819052604081208054349290610213908490610368565b90915550506040513481526001600160a01b0382169033907f8ed7db30df47fbd87811a5e8a95a94838f0c0241263d9a1865d6a2a3e10516e29060200160405180910390a350565b8047101561027e5760405163cd78605960e01b8152306004820152602401610110565b6000826001600160a01b03168260405160006040518083038185875af1925050503d80600081146102cb576040519150601f19603f3d011682016040523d82523d6000602084013e6102d0565b606091505b50509050806102f257604051630a12f52160e11b815260040160405180910390fd5b505050565b80356001600160a01b038116811461030e57600080fd5b919050565b6000806040838503121561032657600080fd5b61032f836102f7565b915061033d602084016102f7565b90509250929050565b60006020828403121561035857600080fd5b610361826102f7565b9392505050565b8082018082111561038957634e487b7160e01b600052601160045260246000fd5b9291505056fea2646970667358221220decce11bdf292e284868f40e1f51968dd28a979e1daacea2c13aa8cf5abf2cc264736f6c63430008170033",
    "linkReferences": {}
  },
  "methodIdentifiers": {
    "balance(address)": "e3d670d7",
    "payBatcher(address)": "b903fa3e",
    "payBatcherFor(address,address)": "3ee0efa5",
    "withdrawFunds()": "24600fc3"
  },
  "id": 1
}